:1000000000800020BD0100005130000015300000CC
:1000100015300000153000001530000015300000CC
:100020001530000015300000153000005130000080
:100030005130000015300000513000000530000044
:1000400051300000513000005130000051300000AC
:10005000513000005130000051300000513000009C
:10006000513000005130000051300000513000008C
:10007000513000005130000051300000513000007C
:10008000513000005130000051300000513000006C
:10009000513000005130000051300000513000005C
:1000A0007D1300005130000051300000513000003D
:1000B000513000005130000051300000513000003C
:1000C000513000005130000051300000513000002C
:1000D000513000005130000051300000513000001C
:1000E000513000005130000051300000513000000C
:1000F00051300000753C000051300000D943000031
:1001000051300000554900005130000051300000CE
:1001100051300000513000005130000051300000DB
:1001200051300000513000005130000051300000CB
:10013000513000005130000051300000AD1400007B
:1001400051300000513000005130000051300000AB
:10015000513000005130000051300000513000009B
:1001600051300000054C00005130000051300000BB
:10017000513000005130000051300000513000007B
:10018000513000005130000051300000513000006B
:10019000513000005130000051300000513000005B
:1001A000513000005130000051300000513000004B
:1001B000513000005130000051300000574B4CF2DC
:1001C000205210B51A804DF628121A8000BF00BFC9
:1001D00002F042FF524B4FF010621A60514A9A608F
:1001E000514ADA60A3F53043203B1A6812F480725A
:1001F00004D14E490A604FF4A8521A604C4B1A7849
:10020000110703D51A7842F008021A70494B4A4C7C
:100210004A482A221A704A4A00239918A14203D256
:10022000195899500433F8E7464B474900228B424E
:1002300002D243F8042BFAE74448454900235A58B0
:100240001A500433B3F5DE7FF9D1424B424A802184
:1002500003F8011B9342FBD1404B3C4A1A60404BD0
:100260008A221A70A3F5805324225A70A0221A7091
:100270009A799207FCD59A79D406FCD4394A9379B5
:1002800003F00C03082B374BF9D103221A714022DB
:100290005A719A799006FCD5324A9179314B4906C8
:1002A000FBD5314A314911600221516020221A7078
:1002B0009A7902F00C020C2AFAD12D4B2D4A1A60C1
:1002C0002D4B2E4A1A6000225A60072243F8042C54
:1002D0002B4AC3F80C2D62B603F06CF9134B1B6864
:1002E000DA0705D5274802F033FF274B274A1A6063
:1002F000274B1B785B0609D5234C244A236893427D
:1003000004D1204802F024FF0023236007F0DAFC28
:1003100002F0A8FE05F016FCFEE700BF0E20054027
:1003200030800440823F04000100002B14D00340C1
:1003300002D0074000E007402492FF1FC493000052
:100340006087FF1F2492FF1FF49CFF1F0082FF1F86
:100350000000000000E400E05FE400E008ED00E0E1
:100360000050064000400640448004400000030165
:1003700004800440C010050014E000E0FF76010096
:10038000000020202FC2FC581CE00340A5C3945A53
:1003900000F00740FFFFFFFFFFFFFFFFFFFFFFFF32
:1003A000FFFFFFFFFFFFFFFFFFFFFFFFFFFFFFFF5D
:1003B000FFFFFFFFFFFFFFFFFFFFFFFFFFFFFFFF4D
:1003C000FFFFFFFFFFFFFFFFFFFFFFFFFFFFFFFF3D
:1003D000FFFFFFFFFFFFFFFFFFFFFFFFFFFFFFFF2D
:1003E000FFFFFFFFFFFFFFFFFFFFFFFFFFFFFFFF1D
:1003F000FFFFFFFFFFFFFFFFFFFFFFFFFFFFFFFF0D
:10040000FFFFFFFFFFFFFFFFFFFFFFFFDEF9FFFF23
:1004100010B5054C237833B9044B13B10448AFF33E
:1004200000800123237010BD2492FF1F00000000F4
:10043000C493000008B5064B1BB106480649AFF34C
:1004400000800648036813B1054B03B1984708BD07
:1004500000000000C49300002892FF1F2492FF1F99
:100460000000000010B50E4B1B683BB901220C4B7D
:100470001A600C4B1A6801321A6002E00022084B25
:100480001A60074C0520217802F072FE0B202178BB
:1004900002F06EFE0C20217802F06AFE10BD00BF53
:1004A0004899FF1F4092FF1F10B582B0124B1B6886
:1004B00001930199114B1A68114B1B688A1A9A42D1
:1004C00018D9104C23685B6820460F490E229847C4
:1004D000204605F0D3FA0D4B1B68022B03D10122F5
:1004E0000A4B1A6006E0094B1B68012B02D102225D
:1004F000064B1A6002B010BDDC99FF1F4C99FF1F1C
:100500004C88FF1F849CFF1F188600004088FF1F37
:1005100010B582B0124B1B6801930199114B1A68F8
:10052000114B1B688A1A9A4218D9104C23685B68D1
:1005300020460F490D229847204605F09FFA0D4BA3
:100540001B68022B03D101220A4B1A6006E0094BFB
:100550001B68012B02D10222064B1A6002B010BDAB
:10056000DC99FF1F4C99FF1F4C88FF1F849CFF1FC5
:10057000288600004488FF1F10B582B0124B1B680C
:1005800001930199114B1A68114B1B688A1A9A4200
:1005900018D9104C23685B6820460F490D229847F4
:1005A000204605F06BFA0D4B1B68022B03D101228C
:1005B0000A4B1A6006E0094B1B68012B02D102228C
:1005C000064B1A6002B010BDDC99FF1F4C99FF1F4B
:1005D0004C88FF1F849CFF1F388600004888FF1F3F
:1005E00010B582B0144B1B6800930099134B1A6826
:1005F000134B1B688A1A9A4214D9124C23685B6801
:10060000204611490D229847204605F037FA0F4B36
:100610001B68012B0CBF002101210C4B1960052028
:1006200002F0A6FD62B662B6034B1B680193019A05
:10063000024B1A6002B010BDDC99FF1F4C99FF1FDE
:100640004C88FF1F849CFF1F388600004499FF1FC1
:1006500010B582B0144B1B6800930099134B1A68B5
:10066000134B1B688A1A9A4214D9124C23685B6890
:10067000204611490D229847204605F0FFF90F4BFF
:100680001B68012B0CBF002101210C4B19600B20B2
:1006900002F06EFD62B662B6034B1B680193019ACD
:1006A000024B1A6002B010BDDC99FF1F4C99FF1F6E
:1006B0004C88FF1F849CFF1F28860000E496FF1FC4
:1006C00010B582B0144B1B6800930099134B1A6845
:1006D000134B1B688A1A9A4214D9124C23685B6820
:1006E000204611490F229847204605F0C7F90F4BC5
:1006F0001B68012B0CBF002101210C4B19600C2041
:1007000002F036FD62B662B6034B1B680193019A94
:10071000024B1A6002B010BDDC99FF1F4C99FF1FFD
:100720004C88FF1F849CFF1F488600005499FF1FC0
:1007300010B582B0174B1B6800930099164B1A68CE
:10074000164B1B688A1A9A4219D9154C23685B68A4
:10075000204614490E229847204605F08FF9124B87
:100760001B68012B0CBF002401240F4B1C600520CB
:10077000214602F0FDFC0C20214602F0F9FC62B695
:1007800062B6044B1B680193019A034B1A6002B0D6
:1007900010BD00BFDC99FF1F4C99FF1F4C88FF1F45
:1007A000849CFF1F588600004099FF1F30B583B01E
:1007B000714800F09DFD68467049714A00F00EFCDA
:1007C000684600F08FFC0220014602F003FD032082
:1007D000022102F0FFFC0420022102F0FBFC1120A8
:1007E000022102F0F7FC1520022102F0F3FC162092
:1007F000022102F0EFFC1720022102F0EBFC0520A1
:10080000012102F0E7FC0B20012102F0E3FC0C20A7
:10081000012102F0DFFC0E20002102F0DBFC0F20A2
:10082000002102F0D7FC1020002102F0D3FC14209C
:10083000012102F0CFFC0D20012102F0CBFC0A20A7
:1008400002F0A2FE022002F0B7FC18B902224D4BC2
:100850001A6007E0022002F0AFFC012802D1012259
:10086000484B1A60032002F0A7FC18B90222464B3D
:100870001A6007E0032002F09FFC012802D1012248
:10088000414B1A60042002F097FC18B902223F4B3A
:100890001A6007E0042002F08FFC012802D1012237
:1008A0003A4B1A60374B1968394C204605F032F93B
:1008B000204605F0E3F8344B1968204605F02AF984
:1008C000204605F0DBF8314B1968204605F022F987
:1008D000204605F0D3F80A2002F056FE02202D49EA
:1008E000042202F0B7FC03202B49042202F0B2FCE0
:1008F00004202A49024602F0ADFC112028490222B8
:1009000002F0A8FC15202749022202F0A3FC1620C1
:100910002549022202F09EFC17202449022202F0FF
:1009200099FC234A0623137022494DF6BA330B80F3
:10093000214B186800251D600D8820490D60117835
:1009400041F0280100F040020A431A601C491D4A88
:1009500011601A6842F040021A604FF000421A4BD0
:100960001A6023685B68204618491222984720467F
:1009700005F084F803B030BDB499FF1F688600000D
:10098000748600004888FF1F4488FF1F4088FF1FAF
:10099000849CFF1F7905000011050000A9040000D8
:1009A000E105000051060000C1060000310700000B
:1009B000D099FF1FD299FF1F009003400890034079
:1009C00065040000CC99FF1F04E100E08086000070
:1009D00008B50D20012102F0CBFB08BD70B5694CB4
:1009E0002368694D5B68204629460C2298472046BB
:1009F00005F044F823685B6820466449052298475F
:100A0000204605F03BF82368614E5B68204631467E
:100A100024229847204605F031F85E4B196820469D
:100A200005F078F8204605F029F85B4B1968204658
:100A300005F070F8204605F021F8584B196820465B
:100A400005F068F8204605F019F823685B68204631
:100A5000314624229847204605F010F823685B6849
:100A600020464F4909229847204605F007F8236899
:100A70005B68204629460C229847204604F0FEFF7A
:100A800023685B682046474906229847204604F0C1
:100A9000F5FF23685B6820463146242298472046AC
:100AA00004F0ECFF404B1968204605F033F820466F
:100AB00004F0E4FF3D4B1968204605F02BF8204672
:100AC00004F0DCFF3A4B1968204605F023F8204675
:100AD00004F0D4FF374B1968204605F01BF8204678
:100AE00004F0CCFF23685B682046314624229847F7
:100AF000204604F0C3FF23685B6820462E490A2283
:100B00009847204604F0BAFF23685B6820462946D0
:100B10000C229847204604F0B1FF23685B6820460A
:100B2000264908229847204604F0A8FF2046244B77
:100B3000196D04F0EFFF204604F0A0FF2046214B82
:100B4000196D04F0E7FF204604F098FF20461E4B85
:100B5000D3F8201204F0DEFF204604F08FFF236854
:100B60005B68204619490C229847204604F086FF0E
:100B700023685B68204629460C229847204604F0EB
:100B80007DFF70BD849CFF1F94860000A48600003A
:100B9000AC8600004888FF1F4488FF1F4088FF1F65
:100BA000D4860000E08600004499FF1FE496FF1FF2
:100BB0005499FF1F4099FF1FE8860000F48600004B
:100BC0004892FF1FE896FF1F9494FF1F00870000C4
:100BD000184B1B68012B26D1174B1B68012B22D108
:100BE000164B1B68012B1ED1154B1B68012B1AD10C
:100BF000144B1B68012B16D1134B1B68012B12D110
:100C0000124B1B68012B0ED1114B1A6802F06702C0
:100C10001A6000210F4A11601A6802F0470242F080
:100C200028021A6070470A4B1A6802F067021A60BD
:100C3000704700BF4888FF1F4488FF1F4088FF1F80
:100C40004499FF1FE496FF1F5499FF1F4099FF1F0F
:100C500000900340049003402DE9F04F91B00EA89E
:100C600000F058FA0EA800F021FA0146DFF8D8B1DA
:100C7000DBF80050DFF8D4A1DAF80040DFF8D091BB
:100C8000D9F80000DFF8CC81D8F800300A93644F1F
:100C90003B680B93634B1B680C93634B1B680D9372
:100CA0009DF83D209DF83C309DF83B6000969DF8F6
:100CB0003A6001969DF8396002969DF8386006F515
:100CC000FA660396049505940690584E306807908E
:100CD000574D28680890574C20680990564800F0F6
:100CE0005DFF0EA800F0E2F90146DBF80000049079
:100CF000DAF800300593D9F800000690D8F80030F3
:100D00000A9338680B90474B1B680C934648006861
:100D10000D909DF83D209DF83C309DF83B000090E3
:100D20009DF83A0001909DF8390002909DF8380036
:100D300000F5FA60039030680790286808902068F2
:100D400009903E4801F0A8FE0EA800F0AFF9014658
:100D5000DBF800300493DAF800000590D9F8003091
:100D60000693D8F800000A903F682E4B1B680C933E
:100D70002D4800680D909DF83D209DF83C309DF871
:100D80003B0000909DF83A0001909DF839000290D8
:100D90009DF8380000F5FA600390306807902868E5
:100DA0000890206809900B97254801F0C3FA9DF838
:100DB0003D001923009300213C220B4604F0B4FEB1
:100DC0000146142002F0C6FAFFF708FE0E2002F0DA
:100DD0006BF830600F2002F067F82860102002F0F6
:100DE00063F82060174F3846316804F093FE3846A8
:100DF00004F044FE3846296804F08CFE384604F0BE
:100E00003DFE3846216804F085FE384604F036FE83
:100E1000FFF7DEFDFFF7DCFE11B0BDE8F08F00BF8D
:100E2000E496FF1F5499FF1F4099FF1F4492FF1F34
:100E30005099FF1FE096FF1F4892FF1FE896FF1F83
:100E40009494FF1F849CFF1F4888FF1F4488FF1F46
:100E50004088FF1F4499FF1F38B50E4D284600F00B
:100E600037FB0D4C28460D49224606F01BFF0C4D62
:100E7000284600F0FDFE28460A49224606F012FFE9
:100E8000094D284601F0BAFA28460849224606F0DC
:100E900009FF38BD4892FF1F3C88FF1F291500003D
:100EA0009494FF1FC91C0000E896FF1F61240000F6
:100EB00030B4B0F5FA6F24BFA0F5FA6080B2012912
:100EC0000AD9104C631E8D1E54FA85F513F8014F94
:100ED000224492B2AB42F9D1022904D910F0030F97
:100EE00004BF013292B200EBC00300EBC30303EB7B
:100EF0008303013B033003EBA000104480B230BCFD
:100F0000704700BF108700000378303B03F0FF03F9
:100F10000A2B28BF00234078303803EB830300EB13
:100F20004300C0B2704700BF70B4284B0B44284A3E
:100F3000A2FB03414909C1EB0114A3EB84034371F4
:100F4000A2FB01325209C2EB0213A1EB8301017132
:100F5000204BA3FB02431B0903EB4301A2EBC1029D
:100F6000C2709BB200220270B3F5B77F15DB01217E
:100F70000A464FF69366B21A13449BB211F0030F60
:100F800014BF002201224C1CE5B202F26D14A342F0
:100F900001DB2946EFE7017000E0012201214170E9
:100FA0000D4D41786C1814F8014C1AB1022904BF98
:100FB0000134E4B2A34204D31B1B9BB20131417044
:100FC000EFE70133837070BC704700BF80BC92C7ED
:100FD00089888888ABAAAAAA1087000070B584B057
:100FE00004460D46164601AB0868496803C32989C3
:100FF000AA7A19809A700DF10D00FFF785FF207015
:101000009DF80430413B122B37D8DFE803F01B3644
:10101000363436183636360A363623312E363636DC
:101020002B009DF80530612B06D09DF806306E2B05
:1010300014BF0723062300E0012363701DE0022391
:1010400063701AE09DF80630722B14BF0823042346
:10105000637012E09DF80630722B14BF0523032342
:1010600063700AE00923637007E00A23637004E0F9
:101070000B23637001E00C23637002A8FFF744FFA9
:10108000A07001AB3068716803C301A8FFF73CFF93
:10109000E0700DF10700FFF737FF20710DF10A0036
:1010A000FFF732FF6071204604B070BD10B50446F2
:1010B00000786178A278FFF7FBFE00EB4000E37850
:1010C00003EBC003C3EB0313227902EB8303C3EBEF
:1010D0000313627902EB83030148184410BD00BF7B
:1010E00080436D3800B583B0FFF7E0FF064B1B6807
:1010F0000193019A054BA3FB0213A0EB9310044A42
:10110000106003B05DF804FBDC99FF1FD34D621043
:101110005899FF1F10B582B00446084B1B68019315
:101120000199074BA3FB0121064B1B6803EB9111AF
:10113000FFF7FAFE204602B010BD00BFDC99FF1F8A
:10114000D34D62105899FF1F0B4B1B7813B90B4BF3
:101150001B7873B10A4B1B78202B03D90123037131
:1011600000207047581C064A1070064AD1540120CE
:1011700070470020704700BFC699FF1F8899FF1F66
:10118000C799FF1F6499FF1F704700BF024B187873
:10119000024B1B78C01A7047C599FF1FC499FF1FE7
:1011A000074B1B78074A12789A4205D9591C044A02
:1011B0001170054AD05C70474FF0FF30704700BF98
:1011C000C499FF1FC599FF1F8C99FF1F054B1B7802
:1011D000054A12789A4286BF044AD05C4FF0FF302D
:1011E000704700BFC499FF1FC599FF1F8C99FF1F4F
:1011F00008B5104BDB7813F0200F0CD1122001F052
:101200005DFF0D4B1B689BB100210C4A11700C4A0D
:101210001078984708BD0B4A13780133DBB213707E
:10122000012B02D8084B1B7813B9122001F046FF9E
:1012300008BD00BF006006406099FF1FC499FF1FF2
:10124000C599FF1FB099FF1F8899FF1F38B5144635
:101250000D4B1B7813B90D4B1B7893B10C4B1D78BC
:10126000C5F12103A34202D2012202711C460948A2
:101270002844224601F070FC2544054B1D70204691
:1012800038BD002038BD00BFC699FF1F8899FF1FD9
:10129000C799FF1F6499FF1F002202714FF47A71F2
:1012A00081600273014A0260704700BF2887000016
:1012B0000B4B1B6813F0400F10D00A4B994203D818
:1012C0002722094B5A7006E0084B994294BF1A2214
:1012D0000D22054B5A700422034B9A71704700BFD0
:1012E000348004407F1A0600006006403F420F0031
:1012F00008B50023174A1370174A116841F04001DE
:101300001160164A9370164B1B78122B04D14FF4C0
:101310001972144B1A6005E0112B03D14FF41972A6
:10132000114B1A60114B1B78132B04D14FF4197217
:101330000F4B1A6005E0102B03D14FF419720D4BBF
:101340001A600D49FFF7B4FF044B20225A71802226
:101350009A7008BD8899FF1F3480044000600640E1
:101360005088FF1F0CA0044004A004405188FF1FB8
:1013700008A0044000A00440A086010008B53D4B31
:10138000DB78DBB213F0100F06D01021394AD17090
:1013900013F0400F03D108BD13F0400F2CD013F011
:1013A000040F1BD00023344A1370344A1370344B9B
:1013B0001B681BB19847314B1B782BB901222F4B6F
:1013C0001A7000222F4B1A702A4BD0229A702D4A85
:1013D00012781A7101222C4B1A7009E00122264B57
:1013E0001A700022294B1A70224BC0229A701B7966
:1013F0000222204BDA7008BD1E4A927812F0100FBC
:101400001CD013F0010F14D11F4B1B781B4A12780C
:101410009A4207D9591C1C4A11701A4AD25C154BC2
:101420001A7102E00022134B1A71D022114B9A70EC
:101430001BE0104BC0229A701B7916E00022144B5F
:101440001A7012201349032201F004FF094B1B7983
:10145000DAB20E4B1B781F2B07D80749097821B148
:10146000581C0A4908700C49CA540222014BDA7010
:1014700008BD00BF006006405C99FF1FC799FF1FB1
:10148000AC99FF1F6499FF1FC899FF1FC599FF1FE3
:10149000B099FF1FF11100008C99FF1F08B5024899
:1014A000FFF7FAFE08BD00BFB499FF1F08B5064B51
:1014B0001B6813F0800F03D003F07F03024A136010
:1014C000024B1B68984708BD00900340CC99FF1F52
:1014D00038B504460125C5641923036560300F49FA
:1014E0004FF4D87201F038FB2823C4F8103242F2CE
:1014F0001073C4F814325023C4F81832084BC4F8DF
:101500002032084BC4F8283244F6206002F0AEF8CE
:101510000D20294601F05EFE204638BD40870000C0
:101520000000C8C30000C841704700BFFFFFFFFFB5
:1015300038B590F830321BB1406806F0A3FA38BDD8
:1015400090F82F321BB1806906F09CFA38BD90F8F4
:101550003A321BB1406806F095FA38BD90F8313246
:10156000CBB1806905F05CFE04F0BCFB0AA3D3E9B3
:10157000002305F0BBFE04460D460022002306F0C2
:1015800045F918B9204605F1004101E020462946F9
:1015900006F06EF938BD38BD0000000000D076407E
:1015A00090F830324BB990F82F3243B990F83A3274
:1015B0003BB990F8313233B970470448704704485A
:1015C0007047024870470020704700BF0000A040ED
:1015D0000000204138B5044690F844326BB10168F0
:1015E000174A81FB0223CA18CB17C3EBA203C3EB34
:1015F000C303C91AC26D0A44C265D4F824522846EE
:10160000104906F0D7FA20B928460F4906F0D2FA59
:1016100048B1E36D0133E36528464FF07E5106F093
:101620007DF9C4F82402D4F824024FF0804106F07A
:10163000C1FA20B10323E3650023C4F8243238BD86
:10164000932449920000C040000080C0F0B58BB0E8
:10165000064603AC204D0FCD0FC495E8070084E883
:101660000700B06A02230093002140F2FF324FF0DE
:10167000FF3304F059FA07467569D6F8244220462C
:10168000164906F0BFFA20B92046154906F09CFA23
:1016900028B1002386F84332F36D0133F36596F8E1
:1016A00043324BB93068001706F0ECF9C6F8240253
:1016B000012386F843320DE005EBD57507EB65078E
:1016C0000AAB03EB8707204657F81C1C06F026F9E7
:1016D000C6F824020BB0F0BDF088000000004041C5
:1016E000000040C1F8B5044690F83032002B42D0DB
:1016F0006A4D2B685B68284669491222984728463C
:1017000004F0BCF9E36D5BB92046FFF79FFFD4F806
:1017100024024FF0844106F001F906F07DFAF8BD8D
:10172000012B12D194F847323BB1D4F824025D4921
:1017300006F0F4F806F070FAF8BDD4F824025A491D
:1017400006F0ECF806F068FAF8BD022B07D1D4F8E1
:101750002402564906F0E2F806F05EFAF8BD032BC3
:1017600040F09880D4F824024FF0844106F0D6F877
:1017700006F052FAF8BD90F82F325BB1474C23685F
:101780005B6820464A4913229847204604F076F9C0
:101790002C20F8BD90F83A3273B1404D2B685B684D
:1017A0002846444914229847284604F067F9D4F89B
:1017B000280206F031FAF8BD90F83132002B6BD0D8
:1017C000364D2B685B6828463B490F2298472846D0
:1017D00004F054F994F83732FBB9636803EB430023
:1017E000400005F01DFD04F07DFA0022334B05F0AA
:1017F0007DFD0022324B05F0C7FB04460D4600225A
:10180000002306F003F818B9204605F1004101E075
:101810002046294606F004F8F8BD666806EB460047
:10182000400005F0FDFC04F05DFA04460D46254835
:1018300080FB0630A0EBE67005F0F2FC04F052FAF3
:1018400006460F462046294600221C4B05F04EFD59
:1018500000221B4B05F098FB04460D4630463946E6
:101860000022194B05F042FD02460B462046294650
:1018700005F03CFD04460D460022002305F0C6FF9E
:1018800018B9204605F1004101E02046294605F03F
:10189000C7FFF8BD2C20F8BD2C20F8BD849CFF1F8D
:1018A0000C89000000000C420000104200001C42A5
:1018B00020890000348900004C8900000000444069
:1018C00000003E40ABAAAA2A0000394008B5022019
:1018D00002F072F8002002F06FF8002002F06CF8BD
:1018E00008BD00BF38B50446436B012B11D100235E
:1018F00080F82F3280F8303280F831323B4D2B683F
:101900005B6828463A490F229847284604F0B6F803
:101910000CE05BB980F83032344D2B685B682846A8
:1019200034490B229847284604F0A8F8A36B012BF2
:1019300013D184F82F32002384F8303284F83A32FD
:1019400084F83132294D2B685B6828462A491022D9
:101950009847284604F092F80CE05BB984F83E32D0
:10196000224D2B685B68284622490B22984728465F
:1019700004F084F8E36B012B13D184F83A3200238E
:1019800084F82F3284F8303284F83132174D2B68C6
:101990005B682846194911229847284604F06EF8DA
:1019A0000CE05BB984F83A32104D2B685B6828462E
:1019B00010490B229847284604F060F8236C012B4D
:1019C00012D184F83132002384F82F3284F83A326D
:1019D00084F83032054C23685B68204608490C22A5
:1019E0009847204604F04AF838BD00BF849CFF1F8A
:1019F0005C8900006C890000788900008C890000F7
:101A0000A08900002DE9F04182B00446FFF76AFF8B
:101A10002046FFF767FE20652046FFF789FD6065D9
:101A20002046FFF7BDFDA065584D2B685B68284632
:101A300057490A229847284604F020F82846216D85
:101A400004F068F8284604F019F8276D206B0A2680
:101A50000096002140F2FF326FF0090304F064F8B1
:101A600038442065183054F82030C4F81432D4F8C3
:101A7000187293FBF7F7C4F81C72022001F09CFF68
:101A8000C7F30728404601F097FFFFB2384601F040
:101A900093FF284602213246002303F0FFFF284629
:101AA00003F0ECFF284641463246002303F0F6FFE0
:101AB000284603F0E3FF284639463246002303F068
:101AC000EDFF284603F0DAFF0D20012101F050FB65
:101AD00094F842323BB1E36D002BCCBF03F1FF33EE
:101AE0000323E36505E0E36D022BD4BF013300233C
:101AF000E365D4F814322C2B04BF012384F844325C
:101B0000D4F828024FF07E5105F008FF0546214920
:101B100006F078F810B9C4F8285202E01E4BC4F859
:101B200028322046FFF756FD666DA06AC82500954D
:101B3000002164226FF0C70303F0F6FF05F0A2FF57
:101B40000146304605F0EAFE6065A66DE06A009544
:101B5000002140F2FF326FF0C70303F0E5FF05F00C
:101B600091FF0146304605F0D9FEA065606D06F094
:101B700079F801F009FD2046FFF7A8FEA06D06F0F8
:101B800071F801F001FD02B0BDE8F081849CFF1FF7
:101B9000B0890000000090420000C841F8B504463A
:101BA000016042608360069BC360079B0361089BE2
:101BB0004361099B83610A9BC3610B9B03620C9B7E
:101BC00043620D9B83620E9BC3620F9B0363109B5A
:101BD0004363119B8363129BC363139B036490F85D
:101BE0002D3203BB642702260025384601F0E4FEAF
:101BF000304601F0E1FE284601F0DEFE284601F005
:101C0000DBFE0D20294601F0B3FA322001F0BCFCC6
:101C1000012384F82D324FF4FA7001F0B5FC94F8EA
:101C20002D32002BE1D0E369012B03D12046FFF7D1
:101C3000E9FEF8BD022B16D1002020650023636564
:101C4000A36584F8300284F82F0284F8310201F091
:101C5000B3FE054C23685B68204604490F22984771
:101C6000204603F00BFFF8BD849CFF1FBC890000D9
:101C700010B5044611494FF4D87200F06DFF2823C7
:101C8000C4F8B0310A23C4F8B43142F21070C4F879
:101C9000BC015023C4F8C031094BC4F8C831094B0A
:101CA000C4F8D0311923C4F8203202F025FC0D20ED
:101CB000012101F08FFA204610BD00BFCC89000041
:101CC0000000C8C30000C841704700BFFFFFFFFF0E
:101CD00038B590F8343223B1D0F81C0205F0D2FEAA
:101CE00038BD90F8333223B1D0F81C0205F0CAFE9B
:101CF00038BD90F8373223B1D0F81C0205F0C2FE8F
:101D000038BD90F83A32D3B1D0F81C0205F088FA09
:101D100003F0E8FF0AA3D3E9002305F0E7FA04463D
:101D20000D460022002305F071FD18B9204605F18B
:101D3000004101E02046294605F09AFD38BD38BD36
:101D40000000000000D0764090F834324BB990F893
:101D5000333233B990F837321BB990F83A3203B9BD
:101D600070470020704700BF38B5044690F84732EE
:101D700083B1D0F804121A4A81FB0223CA18CB1788
:101D8000C3EBA203C3EBC303C91AD0F82C220A4445
:101D9000C0F82C22D4F8CC512846124905F00AFF8D
:101DA00020B92846104905F005FF58B1D4F82C3267
:101DB0000133C4F82C3228464FF07E5105F0AEFDB9
:101DC000C4F8CC01D4F8CC014FF0804105F0F2FE0C
:101DD00028B10323C4F82C320023C4F8CC3138BD19
:101DE000932449920000C040000080C0F0B58BB041
:101DF000064603AC234D0FCD0FC495E8070084E8D9
:101E00000700D6F8E00102230093002140F2FF32E0
:101E10004FF0FF3303F088FE0746D6F81852D6F885
:101E2000CC412046184905F0EDFE20B9204617495F
:101E300005F0CAFE38B1002386F84632D6F82C32B7
:101E40000133C6F82C3296F8463253B9D6F804025C
:101E5000001705F017FEC6F8CC01012386F84632BC
:101E60000DE005EBD57507EB65070AAB03EB8707BC
:101E7000204657F81C1C05F051FDC6F8CC010BB0EC
:101E8000F0BD00BF7C8B000000004041000040C15D
:101E9000F8B5044690F83432002B43D06C4D2B68D3
:101EA0005B6828466B4913229847284603F0E6FDF5
:101EB000D4F82C325BB92046FFF798FFD4F8CC0158
:101EC0004FF0844105F02AFD05F0A6FEF8BD012B78
:101ED00012D194F84A323BB1D4F8CC015E4905F0F6
:101EE0001DFD05F099FEF8BDD4F8CC015B4905F065
:101EF00015FD05F091FEF8BD022B07D1D4F8CC01F9
:101F0000574905F00BFD05F087FEF8BD032B40F0A7
:101F10009A80D4F8CC014FF0844105F0FFFC05F025
:101F20007BFEF8BD90F833325BB1494C23685B68A7
:101F300020464C4914229847204603F09FFD2C2050
:101F4000F8BD90F8373273B1414D2B685B68284675
:101F5000454915229847284603F090FDD4F8D00152
:101F600005F05AFEF8BD90F83A32002B6DD0384D8E
:101F70002B685B6828463D4910229847284603F0A5
:101F80007DFD94F8403203BBD4F8083203EB4300E4
:101F9000400005F045F903F0A5FE0022344B05F0A2
:101FA000A5F90022334B04F0EFFF04460D46002252
:101FB000002305F02BFC18B9204605F1004101E093
:101FC0002046294605F02CFCF8BDD4F8086206EB43
:101FD0004600400005F024F903F084FE04460D4657
:101FE000254880FB0630A0EBE67005F019F903F0F8
:101FF00079FE06460F462046294600221C4B05F076
:1020000075F900221B4B04F0BFFF04460D46304615
:1020100039460022194B05F069F902460B46204665
:10202000294605F063F904460D460022002305F019
:10203000EDFB18B9204605F1004101E02046294694
:1020400005F0EEFBF8BD0020F8BD0020F8BD00BF94
:10205000849CFF1F988B000000000C42000010427F
:1020600000001C42AC8B0000C48B0000DC8B000025
:102070000000444000003E40ABAAAA2A00003940BC
:1020800008B5022002F072FB002002F06FFB002076
:1020900002F06CFB08BD00BF38B50446D0F8EC3147
:1020A000012B11D1002380F8333280F8343280F8CC
:1020B0003A323D4D2B685B6828463C4910229847D0
:1020C000284603F0DBFC0CE05BB980F83432364D77
:1020D0002B685B68284636490C229847284603F04F
:1020E000CDFCD4F8F031012B13D184F83332002326
:1020F00084F8343284F8373284F83A322A4D2B6827
:102100005B6828462B4911229847284603F0B6FC05
:102110000CE05BB984F83132234D2B685B682846AC
:1021200023490C229847284603F0A8FCD4F8F43140
:10213000012B13D184F83732002384F8333284F82A
:10214000343284F83A32184D2B685B6828461A49B5
:1021500012229847284603F091FC0CE05BB984F802
:102160003732114D2B685B68284611490C2298477D
:10217000284603F083FCD4F8F831012B12D184F8FF
:102180003A32002384F8333284F8373284F8343218
:10219000054C23685B68204608490D229847204675
:1021A00003F06CFC38BD00BF849CFF1FF08B000067
:1021B000048C0000148C0000288C00003C8C000073
:1021C00070B582B00446FFF767FF2046FFF760FE58
:1021D000C4F820022046FFF77BFDC4F82402204605
:1021E000FFF7B2FDC4F828024D4D2B685B68284606
:1021F0004C490B229847284603F040FC2846D4F867
:10220000201203F087FC284603F038FCD4F8206243
:10221000D4F8E8010A230093002140F2FF326FF066
:10222000090303F081FC3118C4F820123E4803680A
:102230001B68C9B298472846D4F8201203F06AFCFC
:10224000284603F01BFC0D20012100F091FF94F8BB
:1022500045324BB1D4F82C32002BCCBF03F1FF3305
:102260000323C4F82C3207E0D4F82C32022BD4BF5D
:1022700001330023C4F82C32D4F8BC312C2B04BF1A
:10228000012384F84732D4F8D0014FF07E5105F095
:1022900045FB0546254905F0B5FC10B9C4F8D051F9
:1022A00002E0234BC4F8D0312046FFF75DFDD4F89F
:1022B0002462D4F8E001C8250095002164226FF063
:1022C000C70303F031FC05F0DDFB0146304605F0A5
:1022D00025FBC4F82402D4F82862D4F8E401009560
:1022E000002140F2FF326FF0C70303F01DFC05F040
:1022F000C9FB0146304605F011FBC4F82802D4F8AA
:10230000240205F0AFFC01F03FF92046FFF7B8FECC
:10231000D4F8280205F0A6FC01F036F902B070BD31
:10232000849CFF1F4C8C0000749CFF1F0000904297
:102330000000C841F8B50446C0F80412C0F80822ED
:10234000C0F80C32069BC0F81032079BC0F814325C
:10235000089BC0F81832099BC0F81C320A9BC0F8D1
:10236000D4310B9BC0F8D8310C9BC0F8DC310D9BED
:10237000C0F8E0310E9BC0F8E4310F9BC0F8E831A3
:10238000109BC0F8EC31119BC0F8F031129BC0F8E3
:10239000F431139BC0F8F83190F83032A3B90D270F
:1023A000002632253846314600F0E2FE284601F08C
:1023B000EBF8012384F830324FF4FA7001F0E4F8BE
:1023C00094F83032002BEDD0D4F8DC31012B03D15E
:1023D0002046FFF7F5FEF8BD022B0DD10023C4F80F
:1023E00020320022C4F82422C4F8282284F834328F
:1023F00084F8333284F83A32F8BD00BF38B5044669
:102400000125C56419230365603012494FF4D87261
:1024100000F0A2FB2823C4F810320A23C4F81432B7
:1024200042F21073C4F81C325023C4F820320A4B15
:10243000C4F82832094BC4F8303284F8355244F6D7
:10244000206001F0A7FC0D20294600F0C3FE2046C5
:1024500038BD00BF588C00000000C8C30000C84150
:10246000704700BFFFFFFFFF38B590F844321BB143
:10247000806905F007FB38BD90F8433233B18069BD
:1024800000EBD070401005F0FDFA38BD90F84732EF
:102490001BB1406805F0F6FA38BD90F83A32CBB17E
:1024A000806904F0BDFE03F01DFC0BA3D3E90023FB
:1024B00004F01CFF04460D460022002305F0A6F997
:1024C00018B9204605F1004101E02046294605F0F3
:1024D000CFF938BD38BD00BF0000000000D0764005
:1024E00090F844324BB990F8433233B990F8473200
:1024F0001BB990F83A3203B970470020704700BF0B
:1025000038B5044690F851326BB10168174A81FB27
:102510000223CA18CB17C3EBA203C3EBC303C91A28
:10252000C26D0A44C265D4F82C522846104905F001
:1025300041FB20B928460F4905F03CFB48B1E36D4B
:102540000133E36528464FF07E5105F0E7F9C4F802
:102550002C02D4F82C024FF0804105F02BFB20B167
:102560000323E3650023C4F82C3238BD9324499239
:102570000000C040000080C0F0B58BB0064603AC40
:10258000204D0FCD0FC495E8070084E80700B06A1E
:1025900002230093002140F2FF324FF0FF3303F09B
:1025A000C3FA07467569D6F82C422046164905F04D
:1025B00029FB20B92046154905F006FB28B1002368
:1025C00086F85032F36D0133F36596F850324BB90B
:1025D0003068001705F056FAC6F82C02012386F879
:1025E00050320DE005EBD57507EB65070AAB03EB41
:1025F0008707204657F81C1C05F090F9C6F82C02F6
:102600000BB0F0BD088E000000004041000040C14A
:10261000F8B5044690F84432002B42D06A4D2B683E
:102620005B682846694910229847284603F026FA35
:10263000E36D5BB92046FFF79FFFD4F82C024FF003
:10264000844105F06BF905F0E7FAF8BD012B12D1D2
:1026500094F854323BB1D4F82C025D4905F05EF990
:1026600005F0DAFAF8BDD4F82C025A4905F056F90B
:1026700005F0D2FAF8BD022B07D1D4F82C02564946
:1026800005F04CF905F0C8FAF8BD032B40F098802E
:10269000D4F82C024FF0844105F040F905F0BCFA63
:1026A000F8BD90F843325BB1474C23685B68204625
:1026B0004A4911229847204603F0E0F95820F8BD16
:1026C00090F8473273B1404D2B685B682846444907
:1026D00012229847284603F0D1F9D4F8300205F0C9
:1026E0009BFAF8BD90F83A32002B6BD0364D2B6830
:1026F0005B6828463B490D229847284603F0BEF9FF
:1027000094F83F32FBB9636803EB4300400004F0E8
:1027100087FD03F0E7FA0022334B04F0E7FD0022C7
:10272000324B04F031FC04460D460022002305F034
:102730006DF818B9204605F1004101E02046294610
:1027400005F06EF8F8BD666806EB4600400004F040
:1027500067FD03F0C7FA04460D46254880FB0630A6
:10276000A0EBE67004F05CFD03F0BCFA06460F46F1
:102770002046294600221C4B04F0B8FD00221B4BCA
:1027800004F002FC04460D46304639460022194B3F
:1027900004F0ACFD02460B462046294604F0A6FD97
:1027A00004460D460022002305F030F818B92046F3
:1027B00005F1004101E02046294605F031F8F8BD59
:1027C0005820F8BD5820F8BD849CFF1F248E0000BF
:1027D00000000C420000104200001C42388E000035
:1027E0004C8E0000608E00000000444000003E401F
:1027F000ABAAAA2A0000394008B5022001F08EFCDD
:10280000002001F08BFC002001F088FC08BD00BF17
:1028100038B50446436B012B11D1002380F84332B5
:1028200080F8443280F83A323B4D2B685B6828468A
:102830003A490D229847284603F020F90CE05BB98D
:1028400080F84432344D2B685B68284634490922AD
:102850009847284603F012F9A36B012B13D184F893
:102860004332002384F8443284F8473284F83A3201
:10287000294D2B685B6828462A490E22984728462E
:1028800003F0FCF80CE05BB984F83632224D2B687B
:102890005B682846224909229847284603F0EEF84B
:1028A000E36B012B13D184F84732002384F84332C1
:1028B00084F8443284F83A32174D2B685B68284616
:1028C00019490F229847284603F0D8F80CE05BB965
:1028D00084F84732104D2B685B682846104909225E
:1028E0009847284603F0CAF8236C012B12D184F8CC
:1028F0003A32002384F8433284F8473284F8443271
:10290000054C23685B68204608490A229847204600
:1029100003F0B4F838BD00BF849CFF1F708E000028
:10292000808E00008C8E00009C8E0000AC8E00001B
:1029300070B582B00446FFF76BFF2046FFF768FED4
:1029400020652046FFF790FD60652046FFF7C8FD33
:10295000A0654C4D2B685B6828464B490822984778
:10296000284603F08BF82846216D03F0D3F828465B
:1029700003F084F8266D206B0A230093002140F2B7
:10298000FF326FF0090303F0CFF8304400F1180371
:1029900054F82330C4F81C32D4F8202293FBF2F30D
:1029A000C4F8243241002165384803681B6801F0EF
:1029B000FE0198472846216D03F0ACF8284603F045
:1029C0005DF80D20012100F0D3FB94F84F323BB1AC
:1029D000E36D002BCCBF03F1FF330323E36505E078
:1029E000E36D022BD4BF01330023E365D4F81C321E
:1029F0002C2B04BF012384F85132D4F830024FF05D
:102A00007E5104F08BFF0546214905F0FBF810B913
:102A1000C4F8305202E01F4BC4F830322046FFF7B2
:102A20006FFD666DA06AC8250095002164226FF0D5
:102A3000C70303F079F805F025F80146304604F0A5
:102A40006DFF6065A66DE06A0095002140F2FF32DF
:102A50006FF0C70303F068F805F014F8014630463C
:102A600004F05CFFA065606D05F0FCF800F08CFDE3
:102A70002046FFF7C1FEA06D05F0F4F800F084FDDC
:102A800002B070BD849CFF1FB88E0000649CFF1FC5
:102A90000000164300002042F8B504460160426081
:102AA0008360069BC360079B0361089B4361099B8E
:102AB00083610A9BC3610B9B03620C9B43620D9B6A
:102AC00083620E9BC3620F9B0363109B4363119B46
:102AD0008363129BC363139B036490F83432BBB9C6
:102AE00000250D273226284601F018FB38462946D6
:102AF00000F03EFB304600F047FD012384F83432FD
:102B00004FF4FA7000F040FD94F83432002BEAD014
:102B1000236A012B03D12046FFF70AFFF8BD022BE1
:102B200014D10025256500236365A365084E33682D
:102B30005B68304607490D229847304602F09EFFF9
:102B400084F8445284F8435284F83A52F8BD00BFE6
:102B5000849CFF1FC48E0000844641EA000313F0EA
:102B600003036DD1403A41D351F8043B40F8043B94
:102B700051F8043B40F8043B51F8043B40F8043B57
:102B800051F8043B40F8043B51F8043B40F8043B47
:102B900051F8043B40F8043B51F8043B40F8043B37
:102BA00051F8043B40F8043B51F8043B40F8043B27
:102BB00051F8043B40F8043B51F8043B40F8043B17
:102BC00051F8043B40F8043B51F8043B40F8043B07
:102BD00051F8043B40F8043B51F8043B40F8043BF7
:102BE00051F8043B40F8043B403ABDD2303211D397
:102BF00051F8043B40F8043B51F8043B40F8043BD7
:102C000051F8043B40F8043B51F8043B40F8043BC6
:102C1000103AEDD20C3205D351F8043B40F8043B96
:102C2000043AF9D2043208D0D2071CBF11F8013B94
:102C300000F8013B01D30B8803806046704700BF5A
:102C4000082A13D38B078DD010F003038AD0C3F169
:102C50000403D21ADB071CBF11F8013B00F8013B4B
:102C600080D331F8023B20F8023B7BE7043AD9D30A
:102C7000013A11F8013B00F8013BF9D20B780370DF
:102C80004B7843708B7883706046704730B4394A14
:102C90003949136813F0800FFBD10B6813F0800FD4
:102CA000F7D172B6354B1B78002B5FD0344B1C68C4
:102CB00004331D68043318680433196804331A6830
:102CC00004331B682C44204401440A441A44C2F3D0
:102CD0004E0242F400422B4B1A602C331C68043322
:102CE0001D68043318680433196804331A68043300
:102CF0001B682C44204401440A441A44C2F34E0287
:102D000042F40042204B1A6003F108131C6804339C
:102D10001D68043318680433196804331A680433CF
:102D20001B682C44204401440A441A44C2F34E0256
:102D300042F40042154B1A602C331C6804331D68A2
:102D4000043318680433196804331A6804331B68A1
:102D50002C44204401440A441A44C2F34E0242F473
:102D600000420B4B1A600022044B1A7062B630BC52
:102D7000704700BF24B0034024B00B40D599FF1F1B
:102D800038B003402CB0034030B003402CB00B40AF
:102D900030B00B4060223A4B1A70E12201331A70B6
:102DA000384B1B78082B10D1012203F1804303F527
:102DB0006C331A60132334490B6001F5FF2101F2D3
:102DC000FC710A60314A13601FE00A2B0DD13922D1
:102DD0002F4B1A6013232C490B6001F5FF2101F2E0
:102DE000FC710A60294A13600FE00C2B0CBF3522DE
:102DF0003D22274B1A60122323490B6001F5FF2166
:102E000001F2FC710A60214A1360224B1B7833B136
:102E10000123214A136002F50022136005E000231C
:102E20001D4A136002F5002213601C4B1B78012B16
:102E300006D880231A4A136002F5002213601AE0B4
:102E4000042B06D88423164A136002F5002213606F
:102E500011E0082B06D88523114A136002F50022E1
:102E6000136008E0102B94BF862387230C4A13605D
:102E700002F50022136001220A4B1A70704700BF4E
:102E8000004007405288FF1F0CB003400CB00B40BD
:102E900008B00340D899FF1F20B003405388FF1F9C
:102EA00024B00340D599FF1F2DE9F843282873D893
:102EB0003C4B1E5CFF2E72D03B4B1B780BB1FFF7D7
:102EC000E5FE16F0800F29D172B6384C384D4FF020
:102ED000010726602F7062B672B6236813F0800F68
:102EE00004D12B7813F0FF0F0FD1F2E7314B1868A4
:102EF00000222F4B1A7062B62F4B1B781841BDE889
:102F0000F8832B7813F0FF0FE3D062B602F052FE85
:102F100072B6236813F0800FF3D0E7E772B606F0BD
:102F200040095FFA89F9254F254C06F03F06254DEB
:102F30004FF00108B9F1000F04D03B6823F01003F3
:102F40003B6003E03B6843F010033B60266085F87C
:102F5000008062B672B6236813F0800F04D12B781C
:102F600013F0FF0F0FD1E5E7174B18680022154B40
:102F70001A7062B6104B1B781841BDE8F8832B78A5
:102F800013F0FF0FD6D062B602F014FE72B62368BB
:102F900013F0800FF3D0E7E70020BDE8F8830020AE
:102FA000BDE8F883D48E0000D599FF1F00B0034020
:102FB000D799FF1F10B00340D499FF1F0CB00B40EE
:102FC00000B00B40D699FF1F10B00B40094B1A6898
:102FD00042F480521A60084B1B781BB18022074BC9
:102FE0001A7002E0C022054B1A7080F30C00044BEB
:102FF000188070472C800440D899FF1F21C00C40D6
:1030000000C00C40024B1A6801321A60704700BFC2
:10301000DC99FF1F08B50D4C236813F4802F01D0F5
:1030200001F0F0FD236813F4806F01D000F022FE60
:10303000236813F4006F01D001F0CEF9236813F474
:10304000805FE9D001F086FCE6E700BF34800440F1
:1030500008B5FFF7DFFF00BF1022014B1A80704751
:1030600000200540704700BF024A136818441060F2
:10307000184670475488FF1FEFF31383ABB9EFF383
:103080001083ABB9EFF3058323B10F2B05D9094AA0
:10309000985C03E04FF4807000E00020EFF31183B0
:1030A0003BB1834238BF184670474FF0FF3070473E
:1030B00000207047F0E300E0704700BF1D4B03EBBA
:1030C000C000436803F14042A2F592227C2A18D93D
:1030D00003F14042A2F594227C2A14D903F1404224
:1030E000A2F596227C2A10D903F14042A2F598223B
:1030F0007C2A0CD903F14042A2F59A227C2A08D9F5
:1031000070470D4906E00D4904E00D4902E00D4904
:1031100000E00D4972B61A6822F0877222F48032FC
:1031200042F080721A60C3F38403084A41F82320F6
:1031300062B67047008F00005888FF1F9088FF1FFD
:10314000E088FF1F1089FF1F3089FF1FB930000082
:10315000044B00221A6004490A60044A10601022DD
:103160001A60704714D0034004D0034000D00340DD
:1031700021281ED80F4B53F8303093F8802212F0DC
:10318000FF0F08D019B1012283F880207047012277
:1031900083F800217047074B03EBC000436821B15F
:1031A0001A6842F003021A6070471A6822F002029D
:1031B0001A607047008F0000212806D8044B53F88E
:1031C000303093F80002C0B270470020704700BF53
:1031D000008F000021283AD81D4B03EBC0035B6829
:1031E000012919D0042925D0194A52F8302000208D
:1031F00082F8800219B94FF480721A607047022970
:1032000003D140F203121A60704703290CBF4FF438
:10321000817200221A6070470D4A52F83020012155
:1032200082F880124FF4A2721A601A6822F020020B
:103230001A607047064A52F83020012182F8801245
:103240004FF4A2721A601A6842F020021A607047A6
:10325000008F000070B50D46212861D8042A5FD880
:10326000DFE802F00709050B03000B2306E00A2341
:1032700004E0082302E00C2300E009231E04294B8C
:1032800003EBC0035C68236813F4E06F02D10021F4
:10329000FFF7A0FF244B254AC3F89C21244AC3F81A
:1032A000A021244AC3F8A421234AC3F8A821234A11
:1032B000C3F8AC2104F14043A3F592237C2B18D929
:1032C00004F14042A2F594227C2A14D904F140432F
:1032D000A3F596237C2B10D904F14043A3F5982342
:1032E0007C2B0CD904F14043A3F59A237C2B08D9FD
:1032F00070BD134906E0134904E0134902E0134985
:1033000000E0134972B6236823F470232360C4F3EA
:10331000840241F8225043F080731E43266062B657
:1033200070BD00BF008F00000082FF1F1188FF1FCB
:10333000E587FF1FB987FF1F8D87FF1F6187FF1F6D
:103340005888FF1F9088FF1FE088FF1F1089FF1F0C
:103350003089FF1F10B5044628280FD15D4B1B781C
:103360000B2B03D8C3F10C03994003E00C2B84BF53
:103370000C3B19410846FFF729FE10BD554B1B7841
:10338000012202FA03F0002908DC20460021FFF7A1
:10339000EFFE20460121FFF71DFF10BD0A468842BF
:1033A00008D820460121FFF7E3FE20460121FFF760
:1033B00011FF10BDE01EC0B2012806D846480068C3
:1033C00000FB011222FA03F310E0202C01D0192C8B
:1033D00006D14248006800FB022222FA03F305E00E
:1033E0003F48006800FB011222FA03F3E01E1D288B
:1033F00064D8DFE800F0474E402B63631D2463630D
:103400006363636363636332390F16635C6363638F
:1034100063636355334A136040F24442324B1A608F
:1034200010BD324A136040F24442314B1A6010BD65
:10343000304A136040F244422F4B1A6010BD2F4AAD
:10344000136040F244422E4B1A6010BD2D4A1360A7
:1034500040F244422C4B1A6010BD2C4A136040F2DB
:1034600044422B4B1A6010BD2A4A136040F244427A
:10347000294B1A6010BD294A136040F24442284B80
:103480001A6010BD274A13604FF45172264B1A6020
:1034900010BD264A13604FF45172254B1A6010BDBF
:1034A000244A13604FF45172234B1A6010BD234A13
:1034B00013604FF45172224B1A6010BD20467F29D1
:1034C000D4BF00210121FFF753FE20460121FFF761
:1034D00081FE10BD3889FF1F0890034008800B4013
:1034E000088003401080034004B00440188003406B
:1034F00008B00440208003400CB004402880034002
:1035000010B004403080034010C0044038800340B5
:1035100014C004404080034018C004404880034069
:103520001CC00440109003403090044018900340A9
:103530003490044010800B4048A0044018800B4099
:103540004CA0044072B60C4B1B680C4A12680C4924
:10355000096862B611F0806F02D0322B88BF013249
:10356000C3F5BB33FF330749A1FB03039B094FF4AA
:103570007A7000FB0230704718E000E0DC99FF1F12
:1035800004ED00E0ABAAAAAA38B50546FFF7DAFFBA
:10359000044625B938BD013D0AD004F57A74FFF719
:1035A000D1FF001BB0F57A7FF5D202F003FBF6E7FE
:1035B00038BD00BF10B5264B4FF400021A604FF023
:1035C00080721A604FF000721A604FF080621A60C9
:1035D0004FF000621A6000201E4B18604BF6FF711E
:1035E0000433196028231C4A136008321360083220
:1035F0001360083213600832136008321360083217
:103600001360083213600922144C226004F58054C0
:1036100004342060043421600434236008342360BF
:10362000143C226004F5FE24043420600C48016040
:103630000C490B6008310B600B4B1A60FFF7AAFBBB
:103640004FF4C870FFF7A0FF01F05CFE10BD00BF93
:1036500008E100E0048003400C8003400080034048
:1036600008800B400C800B4000800B40254B1A68F3
:1036700042F480621A600023234A1370234A1370B5
:10368000234A1370234A1370234A1370234B1B7869
:1036900013B1152B05D008E040F21332204B1A600D
:1036A00003E040F213321F4B1A601F4B1B78012BB3
:1036B00002D0052B05D008E04FF451721B4B1A6065
:1036C00003E04FF451721A4B1A60C0F34432194BA5
:1036D0001A70C0F347125A7000F01F00987204224B
:1036E0009A700221D9745A7588221A743C22DA70B1
:1036F0004022114B1A704FF40052A3F229331A6082
:10370000704700BF348004406C9AFF1FE599FF1F8B
:10371000749AFF1F6D9AFF1FE499FF1F289AFF1FDD
:1037200040A0044018C004403989FF1F44A0044051
:103730001CC0044000A006402DE400E0164B9B781E
:1037400003F0EC0300F00302134310F0040F18BF62
:1037500043F01003104A937000F00F03042B04D1C0
:103760001346927942F040029A710B4B5A7902F05B
:10377000EF0210F0100F18BF42F01002064B5A7102
:103780009B7903F0EF0310F0200F18BF43F01003F4
:10379000014A9371704700BF00A0064010B5144B5A
:1037A0001B6813F4806F21D0124B1B7813F0FF0FAE
:1037B00006D0104C02F0FEF9237813F0FF0FF9D178
:1037C0004FF400520C4B1A6000230C4AD37040F2A5
:1037D00003120B490A6004310A600A4A13700A4A4C
:1037E00013700A4B1B680BB101221A7010BD00BF89
:1037F00034800440E499FF1F84E100E000A006400B
:1038000040A004406C9AFF1FE599FF1FE099FF1F3D
:1038100010B50446094A137813F0FF0FFBD1204678
:103820000121FFF7D7FC20460021FFF7A1FC044B44
:1038300053F83420034B1A6010BD00BFE499FF1FFA
:10384000008F0000709AFF1F10B40C4609B140F0C1
:103850008000184B1B78984228D0174A126812F43F
:10386000806F21D003F07F03012B02D0052B04D001
:1038700006E00022114B1A6002E00022104B1A6091
:10388000002C0CBF4422602200F07F03012B02D0E9
:10389000052B05D008E042F44072084B1A6003E0A3
:1038A00042F44072064B1A60024B18705DF8044BEC
:1038B000704700BF3989FF1F3480044044A0044092
:1038C0001CC00440114B1B7898421ED0104A12684D
:1038D00012F4806F17D013B1152B04D006E000222C
:1038E0000C4B1A6002E000220B4B1A6010B1152835
:1038F00005D008E040F21332064B1A6003E040F2B4
:103900001332054B1A60014B18707047289AFF1F3D
:103910003480044040A0044018C0044010B50D4B52
:103920001B6813F4806F12D021280CD80A4C0B4B63
:1039300053F8303023600121FFF74CFC236800224C
:103940001A70012010BD0020034B186010BD00202C
:1039500010BD00BF34800440E099FF1F008F0000BD
:10396000114B1B6813F4806F1BD0122804D140F256
:1039700002320E4B1A600DE0142804D140F20232DC
:103980000B4B1A6006E00B4B5A7B02F0FE025A7397
:1039900000207047074B5A7B42F001025A73012006
:1039A00070470020704700BF348004400CA00440E2
:1039B00014C0044000A006402DE9F04107461F4B0B
:1039C0001B6813F4806F37D01D4B1B680BB10122AD
:1039D0001A701C4B1C780134402C28BF00241A4D4F
:1039E0001A4EDFF86C8017E0FFF746FB40280FDC2B
:1039F000337913F0800F0FD02B780133402B28BF81
:103A0000002318F80320D2B2F271DBB22B7003E06E
:103A1000FF2801DD02F0CEF82B78DBB29C42E3D028
:103A2000FFB20B4B1F5501220A4B1A70E4B2054B33
:103A30001C70BC22054BDA70BDE8F0813480044074
:103A4000709AFF1F749AFF1F6D9AFF1F00A0064017
:103A5000E899FF1FE499FF1F2DE9F84F0746284B0F
:103A60001B6813F4806F49D0264B1B680BB10122F1
:103A70001A7007EB010B5F453DD2DFF89890224E9C
:103A8000DFF88C80DFF890A099F800400134402CDA
:103A900028BF00243578EDB2A54220D1BC2388F898
:103AA0000330FFF7E9FA402811DC98F8043013F0EE
:103AB000800F10D033780133402B28BF00231AF831
:103AC0000320D2B288F80720DBB2337003E0FF286E
:103AD00001DD02F06FF83378DBB29D42E1D017F8D8
:103AE000013B0AF804300122084B1A70E4B289F84D
:103AF00000405F45C8D1BC22054BDA70BDE8F88FA5
:103B000034800440709AFF1F6D9AFF1FE499FF1FD5
:103B100000A00640749AFF1FE899FF1F10B5064BDE
:103B20001B7813F0FF0F06D0034C02F043F8237804
:103B300013F0FF0FF9D110BDE499FF1F064B1B785E
:103B4000DBB2064A1278D2B293422CBF3F3202F166
:103B5000FF32D01A704700BF749AFF1F6D9AFF1F83
:103B6000054B1878C0B2054B1B78DBB2984238BFC2
:103B70004030C01A704700BF6C9AFF1FE599FF1FC5
:103B800010B4184B1A78D2B2174B1B78DBB29A429A
:103B900018D001333F2B18D81449C85CC0B2DCB22E
:103BA00011490C7012490968C9B19A4203D300E067
:103BB0000023D31A01E04032D31A1A2B0FDC002362
:103BC0000B700CE04FF0FF3009E0084B1878C0B2E2
:103BD0000021054B1970064B19680029E8D15DF8E2
:103BE000044B70476C9AFF1FE599FF1F2C9AFF1F2B
:103BF000E099FF1F094B1A78D2B2094B1B78DBB250
:103C00009A4207D00133402B28BF0023054AD05CDD
:103C1000C0B270474FF0FF30704700BF6C9AFF1F73
:103C2000E599FF1F2C9AFF1F0D4B1B6813F4806F43
:103C300014D00C4BDA7802F0CB02DA7040225A74BE
:103C4000DA7842F03402DA70074B1A78D2B2074BB6
:103C50001A70074B1B680BB100221A70704700BF27
:103C60003480044000A00640E599FF1F6C9AFF1FB6
:103C7000E099FF1F70B43D4B1B7913F0300F33D028
:103C800072B63A4B9B7D03F0FF022BB9374BDA79C2
:103C900040225A7462B627E062B6354B1978C9B231
:103CA000344B1C78E4B2314D334EEB79D8B24B1C17
:103CB000402B28BF0023A3421CBFF0541946531EBB
:103CC00013F0FF02F1D1CAB2294B1A702B4B1B68BB
:103CD00053B1A1422EBFC4EB0101C4F14004091944
:103CE0002729C4BF01221A70204BDA78D2B212F011
:103CF000800F27D01B7913F0800F23D0204B1C7826
:103D0000E4B2204B1B78DBB29C4210D017491E4D09
:103D100001E0A3420BD00133402B28BF00230879D8
:103D2000E85CC0B2C871087DC0B20728F1D9DBB227
:103D300014490B700D4B1B7913F0800F02D07C21BE
:103D40000A4BD97012F0400F0ED0084B1B7913F0BC
:103D5000400F09D000220D4B1A700D4B1B6803B1A8
:103D60001A703C22014BDA7070BC704700A006400C
:103D70006C9AFF1FE599FF1F2C9AFF1FE099FF1F08
:103D8000749AFF1F6D9AFF1FE899FF1FE499FF1FA8
:103D9000709AFF1F254B1A6842F400621A600023D4
:103DA000234A1370234A1370234A1370234A137053
:103DB000234A1370234B1B78092B02D01A2B05D0F2
:103DC00008E040F21332204B1A6003E040F2133255
:103DD0001E4B1A601E4B1B780A2B02D01F2B05D0DE
:103DE00008E04FF451721B4B1A6003E04FF451721C
:103DF000194B1A60C0F34432184B1A70C0F34712C3
:103E00005A7000F01F00987204229A700221D9742F
:103E10005A7588221A743C22DA704022104B1A70AC
:103E20004FF40042A3F22B331A60704734800440F1
:103E3000E89AFF1F7D9AFF1FF09AFF1FE99AFF1F64
:103E40007C9AFF1F3A89FF1F0CB0044004D0044045
:103E50003B89FF1F10B0044000D0044000B0064072
:103E60002FE400E0164B9B7803F0EC0300F0030214
:103E7000134310F0040F18BF43F01003104A93705F
:103E800000F00F03042B04D11346927942F0400254
:103E90009A710B4B5A7902F0EF0210F0100F18BF15
:103EA00042F01002064B5A719B7903F0EF0310F0B9
:103EB000200F18BF43F01003014A9371704700BFF1
:103EC00000B0064010B5224B1B6813F4006F3ED0C3
:103ED000204B1B7813F0FF0F06D01E4C01F06AFE3A
:103EE000237813F0FF0FF9D14FF400421A4B1A60F8
:103EF00000221A4BDA701A4B1B78092B02D01A2BAE
:103F000005D008E040F20312164B1A6003E040F2BD
:103F10000312154B1A60154B1B7803F07F030A2B15
:103F200002D01F2B05D008E040F20312104B1A609C
:103F300003E040F203120F4B1A6000230E4A137085
:103F40000E4A13700E4B1B680BB101221A7010BD84
:103F5000348004407C9AFF1F84E100E000B00640FA
:103F60003A89FF1F0CB0044004D004403B89FF1F76
:103F700010B0044000D00440E89AFF1F7D9AFF1F54
:103F8000789AFF1F10B50446094A137813F0FF0F03
:103F9000FBD120460121FFF71DF920460021FFF744
:103FA000E7F8044B53F83420034B1A6010BD00BFF0
:103FB0007C9AFF1F008F0000EC9AFF1F10B40C4684
:103FC00009B140F08000184B1B78984228D0174A5E
:103FD000126812F4006F21D003F07F030A2B02D085
:103FE0001F2B04D006E00022114B1A6002E00022D1
:103FF000104B1A60002C0CBF4422602200F07F039B
:104000000A2B02D01F2B05D008E042F44072084B67
:104010001A6003E042F44072064B1A60024B1870BB
:104020005DF8044B704700BF3B89FF1F348004409C
:1040300010B0044000D00440124B1B78984220D0AE
:10404000114A126812F4006F19D0092B02D01A2BF2
:1040500004D006E000220D4B1A6002E000220C4B57
:104060001A60092802D01A2805D008E040F213325D
:10407000064B1A6003E040F21332054B1A60014B05
:10408000187070473A89FF1F348004400CB0044018
:1040900004D0044010B50D4B1B6813F4006F12D010
:1040A00021280CD80A4C0B4B53F8303023600121E7
:1040B000FFF790F8236800221A70012010BD00203D
:1040C000034B186010BD002010BD00BF34800440B9
:1040D000789AFF1F008F00000D4B1B6813F4006FD0
:1040E00013D017280AD140F202320A4B1A600A4B49
:1040F0005A7B42F001025A7301207047064B5A7BEB
:1041000002F0FE025A73002070470020704700BF83
:104110003480044008B0044000B006402DE9F0416E
:1041200007461F4B1B6813F4006F37D01D4B1B68ED
:104130000BB101221A701C4B1C780134282C28BFAB
:1041400000241A4D1A4EDFF86C8017E0FEF794FF3A
:1041500040280FDC337913F0800F0FD02B78013318
:10416000282B28BF002318F80320D2B2F271DBB24B
:104170002B7003E0FF2801DD01F01CFD2B78DBB282
:104180009C42E3D0FFB20B4B1F5501220A4B1A7021
:10419000E4B2054B1C70BC22054BDA70BDE8F0811F
:1041A00034800440EC9AFF1FF09AFF1FE99AFF1F2A
:1041B00000B00640809AFF1F7C9AFF1F2DE9F84F40
:1041C0000746284B1B6813F4006F49D0264B1B6829
:1041D0000BB101221A7007EB010B5F453DD2DFF8EE
:1041E0009890224EDFF88C80DFF890A099F800407C
:1041F0000134282C28BF00243578EDB2A54220D107
:10420000BC2388F80330FEF737FF402811DC98F80C
:10421000043013F0800F10D033780133282B28BFDF
:1042200000231AF80320D2B288F80720DBB23370DB
:1042300003E0FF2801DD01F0BDFC3378DBB29D42D5
:10424000E1D017F8013B0AF804300122084B1A703C
:10425000E4B289F800405F45C8D1BC22054BDA7052
:10426000BDE8F88F34800440EC9AFF1FE99AFF1FE5
:104270007C9AFF1F00B00640F09AFF1F809AFF1F34
:1042800010B5064B1B7813F0FF0F06D0034C01F05E
:1042900091FC237813F0FF0FF9D110BD7C9AFF1F1A
:1042A000064B1B78DBB2064A1278D2B293422CBF7F
:1042B000273202F1FF32D01A704700BFF09AFF1F79
:1042C000E99AFF1F054B1878C0B2054B1B78DBB28B
:1042D000984238BF4030C01A704700BFE89AFF1FAD
:1042E0007D9AFF1F10B4184B1A78D2B2174B1B7867
:1042F000DBB29A4218D001333F2B18D81449C85C5E
:10430000C0B2DCB211490C7012490968C9B19A42B5
:1043100003D300E00023D31A01E04032D31A1A2B52
:104320000FDC00230B700CE04FF0FF3009E0084B6E
:104330001878C0B20021054B1970064B1968002986
:10434000E8D15DF8044B7047E89AFF1F7D9AFF1F84
:10435000A89AFF1F789AFF1F094B1A78D2B2094B0F
:104360001B78DBB29A4207D00133402B28BF0023D1
:10437000054AD05CC0B270474FF0FF30704700BFB5
:10438000E89AFF1F7D9AFF1FA89AFF1F0D4B1B681D
:1043900013F4006F14D00C4BDA7802F0CB02DA7011
:1043A00040225A74DA7842F03402DA70074B1A78F5
:1043B000D2B2074B1A70074B1B680BB100221A7060
:1043C000704700BF3480044000B006407D9AFF1F54
:1043D000E89AFF1F789AFF1F70B43D4B1B7913F0CA
:1043E000300F33D072B63A4B9B7D03F0FF022BB9EE
:1043F000374BDA7940225A7462B627E062B6354B01
:104400001978C9B2344B1C78E4B2314D334EEB7994
:10441000D8B24B1C402B28BF0023A3421CBFF05432
:104420001946531E13F0FF02F1D1CAB2294B1A707C
:104430002B4B1B6853B1A1422EBFC4EB0101C4F149
:10444000400409192729C4BF01221A70204BDA78C9
:10445000D2B212F0800F27D01B7913F0800F23D037
:10446000204B1C78E4B2204B1B78DBB29C4210D06E
:1044700017491E4D01E0A3420BD00133282B28BF62
:1044800000230879E85CC0B2C871087DC0B2072873
:10449000F1D9DBB214490B700D4B1B7913F0800F6F
:1044A00002D07C210A4BD97012F0400F0ED0084B7D
:1044B0001B7913F0400F09D000220D4B1A700D4BE1
:1044C0001B6803B11A703C22014BDA7070BC704754
:1044D00000B00640E89AFF1F7D9AFF1FA89AFF1FB1
:1044E000789AFF1FF09AFF1FE99AFF1F809AFF1F1B
:1044F0007C9AFF1FEC9AFF1F174B1A6842F48052F8
:104500001A600023154A1370154A1370154A137068
:10451000154A1370154A137040F21331144A116092
:104520004FF4517104321160C0F34431114A1170DB
:10453000C0F34711517000F01F0090729370137414
:104540002C23D37040220C4B1A704FF40032A3F28C
:104550002D331A60704700BF34800440649BFF1FF6
:10456000F99AFF1F6C9BFF1F659BFF1FF89AFF1FA7
:1045700008C0044000C0064031E400E0164B9B78C0
:1045800003F0EC0300F00302134310F0040F18BF14
:1045900043F01003104A937000F00F03042B04D172
:1045A0001346927942F040029A710B4B5A7902F00D
:1045B000EF0210F0100F18BF42F01002064B5A71B4
:1045C0009B7903F0EF0310F0200F18BF43F01003A6
:1045D000014A9371704700BF00C0064010B5144BEC
:1045E0001B6813F4805F21D0124B1B7813F0FF0F70
:1045F00006D0104C01F0DEFA237813F0FF0FF9D14A
:104600004FF400320C4B1A6000230C4AD37040F276
:1046100003120B490A6004310A600A4A13700A4AFD
:1046200013700A4B1B680BB101221A7010BD00BF3A
:1046300034800440F89AFF1F84E100E000C0064087
:1046400008C00440649BFF1FF99AFF1FF49AFF1FE4
:1046500010B50446094A137813F0FF0FFBD120462A
:104660000121FEF7B7FD20460021FEF781FD044B36
:1046700053F83420034B1A6010BD00BFF89AFF1F97
:10468000008F0000689BFF1F10B40C4609B140F07A
:104690008000104B1B78984219D00F4A126812F410
:1046A000805F12D003F07F03082B02D100220B4B56
:1046B0001A60002C0CBF4422602200F07F03082BFC
:1046C00003D142F44072054B1A60024B18705DF83A
:1046D000044B70473C89FF1F348004400CC00440E9
:1046E000704700BF10B50D4B1B6813F4805F12D0EC
:1046F00021280CD80A4C0B4B53F830302360012191
:10470000FEF768FD236800221A70012010BD00200A
:10471000034B186010BD002010BD00BF3480044062
:10472000F49AFF1F008F00000D4B1B6813F4805F8D
:1047300013D00E280AD140F202320A4B1A600A4BFB
:104740005A7B42F001025A7301207047064B5A7B94
:1047500002F0FE025A73002070470020704700BF2D
:104760003480044004C0044000C006402DE9F041FC
:1047700007461F4B1B6813F4805F37D01D4B1B6827
:104780000BB101221A701C4B1C780134282C28BF55
:1047900000241A4D1A4EDFF86C8017E0FEF76CFC0F
:1047A00040280FDC337913F0800F0FD02B780133C2
:1047B000282B28BF002318F80320D2B2F271DBB2F5
:1047C0002B7003E0FF2801DD01F0F4F92B78DBB258
:1047D0009C42E3D0FFB20B4B1F5501220A4B1A70CB
:1047E000E4B2054B1C70AC22054BDA70BDE8F081D9
:1047F00034800440689BFF1F6C9BFF1F659BFF1F5D
:1048000000C00640FC9AFF1FF89AFF1F38B5054606
:104810000C4629B115F8010BFFF7A8FF013CF9D1AF
:1048200038BD00BF10B5064B1B7813F0FF0F06D044
:10483000034C01F0BFF9237813F0FF0FF9D110BD3D
:10484000F89AFF1F064B1B78DBB2064A1278D2B2E9
:1048500093422CBF273202F1FF32D01A704700BFBB
:104860006C9BFF1F659BFF1F054B1878C0B2054B63
:104870001B78DBB2984238BF4030C01A704700BF87
:10488000649BFF1FF99AFF1F10B4184B1A78D2B21D
:10489000174B1B78DBB29A4218D001333F2B18D844
:1048A0001449C85CC0B2DCB211490C7012490968E5
:1048B000C9B19A4203D300E00023D31A01E0403289
:1048C000D31A1A2B0FDC00230B700CE04FF0FF30D3
:1048D00009E0084B1878C0B20021054B1970064B4F
:1048E00019680029E8D15DF8044B7047649BFF1FED
:1048F000F99AFF1F249BFF1FF49AFF1F094B1A7898
:10490000D2B2094B1B78DBB29A4207D00133402B5D
:1049100028BF0023054AD05CC0B270474FF0FF307B
:10492000704700BF649BFF1FF99AFF1F249BFF1F66
:10493000054B1A78D2B2054B1A70054B1B680BB1A8
:1049400000221A70704700BFF99AFF1F649BFF1F77
:10495000F49AFF1F2F4B1B7913F0200F23D02D4B00
:10496000DB79D9B22C4B1B780133402B28BF0023B5
:104970002A4A1278D2B29A4204D0294AD154D9B2E2
:10498000254A1170274A116869B1274A1278D2B2B4
:1049900093422EBFC2EB0303C2F140029B18272BA8
:1049A000C4BF01230B701B4BDB78DBB213F0800F0D
:1049B0001CD0184A127912F0800F17D01B4A1178B8
:1049C000C9B2194A1278D2B2914203D16C21114A6C
:1049D000D1700BE00132282A28BF00221449885CDC
:1049E000C0B20C49C871D2B20F490A7013F0400F1F
:1049F0000ED0084B1B7913F0400F09D000220D4B4D
:104A00001A700D4B1B6803B11A702C22014BDA701F
:104A1000704700BF00C00640649BFF1FF99AFF1F4C
:104A2000249BFF1FF49AFF1F659BFF1F6C9BFF1FBA
:104A3000FC9AFF1FF89AFF1F689BFF1F30B40E4BB4
:104A40001B7843F002020D4C04EBC20460600C487A
:104A5000007800280CBF8824C82444EA0141074D8F
:104A600045F8321080F00100054A107083F0010310
:104A7000014A137030BC7047D89BFF1F0080FF1F96
:104A8000519CFF1F10B4431E032B11D872B60A4A63
:104A900052F8230050B14268074941F82320074AE1
:104AA00032F813400188611A22F8131062B600E050
:104AB00000205DF8044B7047C89BFF1FDC9CFF1F64
:104AC000013803280DD872B6074B53F820302BB1AC
:104AD000002001305B68002BFBD100E0002062B6B3
:104AE00070470020704700BF1C9CFF1F38B572B68E
:104AF00001231B491B4C5A1812F8012C12F0080F05
:104B000024D09A0054F832506DB9164B03EBC20111
:104B100008304860144943F83210144B1A78013AAF
:104B20001A7062B638BD42F0010254F832506DB9C5
:104B30000C4B03EBC201083048600D4943F83210BA
:104B40000A4B1A78013A1A7062B638BD0133052B48
:104B5000D1D162B60022054B1A7000F037FC38BD87
:104B6000009100000080FF1F88004000469CFF1F4E
:104B7000C800400010B4431E032B37D8400140F05A
:104B800010001C4A104472B61B4AD25C032A09D892
:104B9000DFE802F019021B050830022216E0083097
:104BA000042213E0154A52F823201AB9134A42F896
:104BB000231003E0124A52F823205160104A42F8B1
:104BC000231062B612E0032200E005220A4CE254F0
:104BD00001F10803436000F00803002B0CBF882399
:104BE000C8230A8843EA0243036062B65DF8044BB7
:104BF000704700BF0080FF1F849BFF1F1C9CFF1F8E
:104C00002C9CFF1F2DE9F84FA34CDFF8E092DFF852
:104C1000E0A2DFF8E0B22578EDB215F0040F1DD068
:104C20009E4B1B7813F0FF0F16D09D4B1B7803F0A3
:104C3000FF022BB1531EDBB2994A137003B900BEB9
:104C4000984B1B7803F0FF0233B1531EDBB2954A39
:104C500013700BB900F018FD0423237015F0080F32
:104C600000F0E48299F80030DBB21D0940F02182A7
:104C70008D4D9E0805EBC6035A6855F83630C3F3D0
:104C80008303013B0C2B00F21082DFE813F0CB0111
:104C9000CB010E020E020E020E020E020E02E801FF
:104CA0000E020E020E020D00804913680B6052685E
:104CB0004A607F4A45F8362000227E490A607A49D8
:104CC0000A618A6101217C4A11709BB240F28162C3
:104CD000934218D8B3F5D06F2ED2B3F5817F00F090
:104CE0001E8106D8802B00F0C980822B00F0CC807A
:104CF00066E140F20232934200F02681B3F5A06FE4
:104D000000F062815CE142F22102934200F0868170
:104D100007D8B3F5086F00F0AB80B3F5106F11D072
:104D20004EE142F22122934200F0418142F22132CF
:104D3000934200F0498143E1604B5D68002D40F0F3
:104D4000188130E1594B9A78544B1A70564D05F141
:104D500080062B6A13F0800F03D0686A083800F0D1
:104D600035FB0835B542F4D1DFF88C810026374693
:104D7000534AB05828B1456800F028FB0DB12846C9
:104D8000F9E700234E4973504E4AB3504E4BF0584A
:104D900028B1456800F01AFB0DB12846F9E7002359
:104DA00049497350494AB35028F8023F484BFB5CCD
:104DB000023B032B0AD8DFE803F0020602060022BA
:104DC000434BDA5502E00122414BDA5501370436F4
:104DD000102ECDD100223F4B1A7001253E4EDFF838
:104DE0001C81314F05EB080313F8013C06F8043B26
:104DF00013F0080F2DD000F0C9FA48B1A90007EB55
:104E0000451200F108035360344A47F8312007E0A7
:104E1000AB00002247F833202E4B1A7801321A706B
:104E200000F0B4FA58B1AB0043F0010307EBC30143
:104E300000F108024A601E4A47F8332009E0AB003F
:104E400043F00103002247F83320224B1A78013245
:104E50001A70AA0042F00201002347F8313042F0F4
:104E6000030247F8323001351D4B9E42BAD11EE293
:104E70000A4B1B781B4D2B700127AAE0194D00230C
:104E80002B706B700227A4E0084B9B88042B37D94A
:104E90000F22154B1A70C1E080200740509CFF1F65
:104EA000D99BFF1F529CFF1F0080FF1F3C9CFF1FD0
:104EB000C8004000709BFF1F519CFF1F0491000021
:104EC000C89BFF1F749BFF1F1C9CFF1F2C9CFF1F78
:104ED000849BFF1F469CFF1FC420074088004000A2
:104EE000D4200740489CFF1FC02007409020074067
:104EF0009420074098200740DA9CFF1F0091000093
:104F0000A04A0021117051709F4A12F8233013F00B
:104F1000020F5CD09B4D01232B70022759E09B4B65
:104F20009B8803F07F03042B02DC984A52881AB155
:104F30000F22954B1A7071E0934A12F8231021F05A
:104F4000020102F82310B2E1904B9B8803F07F032B
:104F5000042B02DC8D4A52881AB10F228A4B1A7038
:104F60005CE0894A12F8231041F0020102F8231094
:104F70009DE1864B5E889F88854BA3F10C0211460C
:104F800033F80C0CB04209D133F80A0CB84205D101
:104F9000360A032E0CBF2F7817891AE00D690C33DF
:104FA0000C32002DEBD10F22774B1A7036E0794B83
:104FB0001A68794B1A60754B9A78784B1A7076E1BB
:104FC0000F22714B1A7029E000273D4601E00227AD
:104FD0006C4D6E4BDB889F4228BF1F46402F34BF6D
:104FE0003E46402628463146FFF728FD3544BF1B84
:104FF00003D13F2E00F2608110E0402F34BF3E46C7
:10500000402628463146FFF719FD3544BF1B01D124
:105010003F2E03D9624B1D60624B1F8001238AF82B
:10502000003042E0594B198842F22103994212D1D3
:105030005D4BD81D12F8011B03F8011F8342F9D103
:105040005A4B1B68862B02D10F22594B1A70002035
:105050000146FFF7F3FC574B45F8363025E0504B3F
:105060001E68BEB14F4FB7F80080B8F1400F34BF93
:105070004546402530462946FFF7E0FCC5EB0803CE
:105080009BB23B800BB9402D01D1354400E0002597
:10509000434B1D603D4B1B88B3F5A06F05D13B4BC7
:1050A00000225A709B788BF8003001238AF8003078
:1050B000B9E0414E9F0806EBC708D8F80420A2F1DA
:1050C0000800013DEDB213F0080F47D000F07EF963
:1050D0003A4B53F825304BB35A68384941F82520EC
:1050E00003F10802C8F80420354A525D032A12D899
:1050F000DFE802F002060A0E0321314A51550AE0A8
:1051000002212F4A515506E005212D4A515502E052
:1051100004212B4A515518F0080F0CBF8822C822D1
:105120001B8842EA034346F837307CE0244B5B5D42
:10513000032B0BD8DFE803F0777702060022204B21
:105140005A5570E001221E4B5A556CE018F0080FBA
:105150000CBF022203221A4B5A5564E056F837302E
:105160001B0C22F8083C002B55D0002322F8063CEB
:1051700042F8043C134B53F825302BBB114B43F83A
:10518000250025E0489CFF1FC02007403C9CFF1FD6
:1051900010910000DC99FF1FEC9CFF1F609CFF1F1B
:1051A000709BFF1F449CFF1FE39CFF1FE49CFF1F9D
:1051B000D99BFF1FC80040000080FF1F1C9CFF1FE1
:1051C000849BFF1FC89BFF1F3F4B53F8253058603F
:1051D0003D4B43F825003D4B33F8151032F8082CB1
:1051E0000A4423F8152000F0D1F860B100F108035B
:1051F000C8F8043018F0080F354B364A08BF13467C
:1052000046F837300FE0002346F83730324B1A7833
:1052100001321A7007E018F0080F2D4B2D4A08BF15
:10522000134646F8373008232370F4E415F0010FD5
:1052300022D02A4902230B700022294B1A70294BD5
:1052400024481860284C5C6098602848D8601A612F
:105250009A610D20264B1870FF23264803700838EA
:10526000037018300270244A13709F22234B1A7067
:1052700001230B70BDE8F88F15F0800F05D00D22CB
:105280001B4B1A708022403B1A7015F0020F06D09B
:10529000184B1A78D2B21A700222083B1A7015F015
:1052A000100F0ED01022164B1A70BDE8F88F002098
:1052B0000146FFF7C3FBB1E628460021FFF7BEFB1E
:1052C000ACE6BDE8F88F00BF749BFF1FDC9CFF1F9E
:1052D000C800400088004000469CFF1F9420074003
:1052E000D89BFF1F0080FF1F889BFF1FDC9BFF1FB9
:1052F000C0200740882007408C20074084200740BA
:105300008020074008B500F099FC00231B491A468D
:105310005A50C81842600833882BF9D1184B1A68C4
:1053200042F480221A60154BC3F30721154A11700D
:10533000C3F30741143211701B0E04321370FF23A4
:10534000343A137008321370783A137001238432A0
:10535000137000216C3211707C3A137070220A4B6A
:105360001A704FF40072A3F241331A60102203F155
:10537000C04303F5C8231A7008BD00BF0080FF1F9B
:10538000348004409C20074049E400E072B60D4B95
:105390001A68B2FA82F30B2B02D962B6002070476A
:1053A0004FF00041D94022EA010206490A6062B684
:1053B000054903EBC303DB00C8180022CA50426052
:1053C000704700BF4089FF1F0084FF1F08B50F4BC7
:1053D000C31A0F4AA2FB03131B090B2B14D80D4A47
:1053E00012783AB10C4A127812F0FF0F02D0FFF790
:1053F0007DFB08BD72B6094A4FF0004121FA03F364
:1054000011681943116062B608BD00BF0084FF1F18
:10541000398EE338469CFF1F509CFF1F4089FF1FB9
:1054200010B5134B1B6853B9124B1B7813F0FF0FC9
:1054300018D00320FFF726FB0D4B1860A8B10C4BCA
:10544000186843885A1C03441C7A03889A4206D37E
:10545000FFF7BCFF0022064B1A60204610BD4280B9
:10546000204610BD4FF0FF3010BD4FF0FF3010BD93
:105470005C9CFF1F509CFF1F08B50D4B1B6883B938
:105480000C4B1B7813F0FF0F08D00320FFF7FAFA3C
:10549000074B186028B94FF0FF3008BD4FF0FF30C0
:1054A00008BD034B1B685A881344187A08BD00BF17
:1054B0005C9CFF1F509CFF1F044B9888044B1B688B
:1054C0001BB11A885B88D31A18447047DC9CFF1FF5
:1054D0005C9CFF1F10B50B4B1B7813F0FF0F0FD018
:1054E000094B186820B1FFF771FF0022064B1A60C4
:1054F00003242046FFF7C6FA10B1FFF767FFF8E76D
:1055000010BD00BF509CFF1F5C9CFF1F2DE9F84F92
:1055100004460122384B1A708B46002965D00E468E
:10552000DFF8E080DFF8E0909A46344FD8F800309A
:1055300083BB99F8003013F0FF0F06D100222E4BE9
:105540001A704FF0FF30BDE8F88F4AF2F9250420B9
:10555000FFF7B6FA07280AD801238AF80030FFF7C8
:1055600015FFC8F80000A8B900238AF80030013DF3
:1055700001D03B7833B10122204B1A704FF0FF303D
:10558000BDE8F88F00F016FB99F8003013F0FF0F1C
:10559000DDD1D3E700233B70D8F800104A88C2F170
:1055A0004005AE4238BF354602F108030B442A4499
:1055B0004A80761B3DB1254414F8012B03F8012BDA
:1055C000AC42F9D100E025464B883F2B07D9402358
:1055D0000B800420FFF7CEFA0023C8F80030052224
:1055E000074B1A700EB12C46A0E70022024B1A702E
:1055F0005846BDE8F88F00BF539CFF1F589CFF1F03
:10560000529CFF1F549CFF1F509CFF1F00B583B08E
:1056100002AB03F8010D18460121FFF777FF03B035
:105620005DF804FB10B5144B1B7813F0FF0F21D06D
:105630000122124B1A70124B196851B10024114B00
:105640001C704B880B800420FFF794FA0C4B1C60F5
:105650000DE0FFF79BFE014630B10022094B1A70A6
:105660000420FFF787FA02E00122064B1A7000229D
:10567000024B1A7010BD00BF509CFF1F539CFF1FB0
:10568000549CFF1F529CFF1F08B50E4B1B7813F054
:10569000FF0F16D10C4B196841B14B880B800420C9
:1056A000FFF768FA0022084B1A6008BDFFF76EFE8C
:1056B000014618B10420FFF75DFA08BD0122034B33
:1056C0001A7008BD539CFF1F549CFF1F529CFF1F64
:1056D00008B503681B68C9B2984708BD08B50368D8
:1056E0001B68C9B2984708BD08B503681B68C9B2F2
:1056F000984708BD08B503681B68C9B2984708BD3C
:1057000008B503681B68C9B2984708BD08B50368A7
:105710001B68C9B2984708BD08B503681B68C9B2C1
:10572000984708BD08B503681B68C9B2984708BD0B
:1057300008B54B0803F1376000F5D830B0FBF1F045
:10574000FDF794FF08BD00BF10B514464B0803F1E8
:10575000376000F5D830B0FBF1F0FDF787FF204649
:10576000FDF7ECFF10BD00BF08B5FEF717F808BD48
:1057700008B50846FEF74CF808BD00BF08B5084656
:10578000FEF7A0F808BD00BF08B508461146FEF7B1
:105790005BF808BD08B50846FEF7C0F8003018BF32
:1057A000012008BD08B50846FEF7DAF8003018BF3A
:1057B000012008BD08B5FEF7D3F908BD08B5FEF70E
:1057C00019FA08BD08B5FEF7DBF908BD08B5FEF704
:1057D000A5F908BD08B5FEF727FA08BD08B5FEF71C
:1057E000ADF908BD08B50846FEF7E6F8012008BD8A
:1057F00008B50846FEF7E0F8012008BD10B51446CC
:1058000008461146FEF728F9204610BD38B50D466A
:10581000084602F039FD044628462146FEF71CF9E9
:10582000204638BD08B54B0803F1376000F5D83085
:10583000B0FBF1F0FEF7AEFA08BD00BF10B514469C
:105840004B0803F1376000F5D830B0FBF1F0FEF7FC
:10585000A1FA2046FEF706FB10BD00BF08B5FEF713
:1058600031FB08BD08B50846FEF78CFB08BD00BF3C
:1058700008B50846FEF7E0FB08BD00BF08B50846BE
:105880001146FEF79BFB08BD08B50846FEF702FC73
:10589000003018BF012008BD08B50846FEF71CFC03
:1058A000003018BF012008BD08B5FEF70BFD08BD8C
:1058B00008B5FEF751FD08BD08B5FEF713FD08BD9C
:1058C00008B5FEF7DDFC08BD08B5FEF75FFD08BDB5
:1058D00008B5FEF7E5FC08BD08B50846FEF71EFC56
:1058E000012008BD08B50846FEF718FC012008BDD8
:1058F00010B5144608461146FEF760FC204610BD60
:1059000038B50D46084602F0BFFC0446284621463D
:10591000FEF754FC204638BD704700BF044B002200
:105920001A714FF47A7199601A73024A1A607047BB
:10593000649CFF1F1890000008B503681B68C9B27B
:10594000984708BD08B503681B68C9B2984708BDE9
:1059500008B503681B68C9B2984708BD08B5036855
:105960001B68C9B2984708BD08B54B0803F1B7607A
:1059700000F55840B0FBF1F0FEF7BEFD08BD00BFDA
:1059800010B514464B0803F1B76000F55840B0FB62
:10599000F1F0FEF7B1FD2046FEF7F0FD10BD00BFAF
:1059A00008B5FEF71BFE08BD08B50846FEF750FE19
:1059B00008BD00BF08B50846FEF792FE08BD00BF4F
:1059C00008B508461146FEF75FFE08BD08B5084653
:1059D000FEF788FE003018BF012008BD08B5084654
:1059E000FEF7A2FE003018BF012008BD08B5FEF783
:1059F0003BFF08BD08B5FEF781FF08BD08B5FEF7FF
:105A000043FF08BD08B5FEF70DFF08BD08B5FEF75A
:105A10008FFF08BD08B5FEF715FF08BD08B508469D
:105A2000FEF7A4FE012008BD08B50846FEF79EFE5D
:105A3000012008BD10B5144608461146FEF7E6FEE3
:105A4000204610BD38B50D46084602F01DFC044640
:105A500028462146FEF7DAFE204638BD704700BFD3
:105A6000044B00221A714FF47A7199601A73024A3A
:105A70001A607047749CFF1F7890000000B583B0D7
:105A8000054B1B88ADF8043003685B6801A902224E
:105A9000984703B05DF804FBD0900000F0B58BB0E0
:105AA000164622B903681B68C9B298472FE0012A3D
:105AB00008BF0A2621B930228DF82520212417E0BD
:105AC00021243746B1FBF6F506FB1515EDB222464B
:105AD000092D94BF30353735EDB20DF1280E7244E3
